:02000004710089
:10000000B60104BF04AA99BE1837BBBEC5CF1ABE3D
:100010004DC8EDBE57070EBF2CE36EBD37AB2EBFEC
:10002000844E9EBE17C0EFBE9D3367BE2E8DAC3D85
:1000300055DD8FBEC507DBBE99A85DBFAB4FDD3E6A
:10004000884925BD4A8E1EBF975180BECBE229BE8E
:100050001D74E8BE8688D0BE2C136ABF260D7E3F75
:10006000CD7857BF25BAC53E3B526CBF9751FCBEF9
:100070005CBE543FB60C8DBBD249E83E0F9A3CBEE5
:10008000CED71FBFAE6523BF9EB8E53D032308BC96
:10009000E0BA05BD843D40BECFF42F3E8FCBE9BD15
:1000A0003D8261BE6A212FBFF2A77ABD40DD423D8D
:1000B000D3E6413FFAB516BF23FE82BE58D6093FAC
:1000C0003AE910BF262995BEB79C1B3F6ECE69BE8C
:1000D0005D8E31BE195E50BFC5B24F3FF9272EBFAE
:1000E000F3434A3F71106BBED6BF5ABF1E5707BFBE
:1000F000B8195EBFA1EAE1BEBD3212BF4D383EBEA7
:1001000005A9A2BE0A1CA4BE9F96B1BE6CC08EBF3C
:100110001BCF0DBF919412BFA7BC29BF7B61193FB4
:10012000613E3BBE171FDEBE24669BBFA1F407BD28
:10013000DB00EABE6FB244BF4C19773EE162AEBE4F
:100140007642C7BEAD9046BEB25688BFA39BAE3FB7
:1001500065E341BF5FC6463F128C1FBF799F08BF52
:100160002EDF803F1A25E13D08B3293F6C521CBFAA
:10017000D2E932BF1C8BA2BEB45E713ECB0A01BF76
:10018000B49E9DBE4E235CBE6F24FD3C6C7EA6BD1E
:1001900070351FBD75FE10BF6E9CB03EE24F22BE93
:1001A0003C3F023F711F5FBF46E156BE6606353FCA
:1001B000D558F3BE8F3723BF4719AE3E096EBBBE7D
:1001C00092A500BEF05900BF48E8503F8C9034BF64
:1001D000F4C20A3FB06413BEB65E2CBF45C747BF2A
:1001E000504008BFF3D186BED6B303BF14D9ECBECE
:1001F000F9A546BEC4C7A8BE94C004BEB62B84BE33
:10020000178FB5BE058A3EBC682435BDDF62ABBE24
:100210009CB320BF412101BF5C5CF3BED18FBFBE48
:100220000E8A7CBEFC499ABE1F83D7BDC861DBBD68
:100230008E51ECBEB917C1BEE5EBDABE4A3FACBE8B
:100240000A9DEBBE464C27BEA192DDBE90E8E7BEFC
:10025000D67AF7BEAF0BACBD2DBC44BF15F6FBBEC6
:10026000F2966CBE35CEF5BE07691FBEEE9190BD0D
:10027000275105BEC3A10BBE4EE104BF1FC80ABF74
:100280008C8315BFE51709BF1604BABE5BFF06BD18
:10029000AF097BBE86DB78BEDE135EBDACA240BF7D
:1002A000A59FD6BD774784BE187210BF906596BED5
:1002B000AE6F1DBFD6B81DBFCA66F5BEF99848BE61
:1002C000306C29BFD59A71BEB37718BF563A87BE36
:1002D00069E2F0BE07B5E5BE027FB0BD1DCFD3BE5B
:1002E000E9BD01BF5918ACBE2F5A1BBE8A58F1BEDA
:1002F000E2C627BFCE23A9BDCD6B37BEB4E390BC09
:100300009FC80ABF1CC6C3BEF06B52BE0F50D1BE01
:10031000948C9EBCF9F1F9BEB0BEAFBE2059C5BEEB
:10032000CCC6BABEB4511EBEFA8BF0BE9C16F9BE46
:10033000CF0405BF2012A9BE6B0F88BE4F241ABE82
:10034000102CDBBE313D8ABE639052BE3A0C2DBCF0
:10035000E6E5AC3E60D477BDC207A1BC58476E3E0F
:10036000CA4382BD37F8B13EA5B27BBE6156A43DFB
:10037000280B1E3E6E308ABDECAB433E1ED0F53DD1
:1003800088A0A1BE2BFC843E3378A93E815B8DBE44
:1003900074389E3E9152403D17748D3E66564EBC59
:1003A00005C760BEDDD7943E884F96BEE667043E23
:1003B00022E926BF83C41FBE61A89B3DDC157E3E9B
:1003C00010E14B3EE6B35FBF5D65D0BE51E25BBF5F
:1003D00084B431BE36C8B1BECD66E5BE6078C1BE5C
:1003E0003D9C2DBF82AFA8BE43C707BF7AF26DBF49
:1003F0001364BABEF572B0BE76D420BEADFBE3BEC8
:10040000079C36BF4CF7C9BDD78D37BF36E2C0BE9B
:100410003231293D99E1A3BE2E318EBED69EB4BEA7
:100420009ED72C3ED95C1BBF0AFC87BE6ED943BF4A
:1004300018EF4FBF5C8335BF34090BBFD97FB53E82
:100440002312CC3E7B2F273DB03DFBBEF32A5FBE7F
:100450005AFF81BE9A18B13D968AB1BE2388C03C2E
:1004600057B2E9BC44BE753E152F7FBECBE281BEBC
:1004700076A70BBF85DADF3E08E5C43EB768E3BE6A
:100480001E97D63E87665B3EAEECD2BEB2E9143D07
:10049000186000BF12D1CD3EF3D417BF1CE3923ECB
:1004A0006C0B3DBF8861963EE5A4E63E73C9263ECF
:1004B0004E84B13D116B2D3FCC5A423FE6BC343FD8
:1004C0008B6F88BE1CF8A53E9410163F269F2B3ECE
:1004D000966CF13E206D623E3204C73E7AB9193FF8
:1004E00009CA963EAD35373F2BA714BE0CE83D3FF9
:1004F000E7542C3F793CAD3DBEBA2F3F911C2C3FB9
:100500007E6FC23D13A2333F9E3F4BBDA4DEF33E40
:1005100045CEAABEFF03063FA88B793C57AFA23E4B
:10052000D07C1C3FE89E053F8C2C3CBF981F30BF01
:10053000404F84BFC2F275BF42CB92BF2F3210BF73
:10054000C4E73BBF4E1432BF1D1A1DBF972F80BF9B
:100550007D6F49BF2A026DBF326A61BFD81549BF9E
:10056000885648BFB46C6EBFBB910BBFDFC13BBFA9
:10057000EDFC07BFD00B55BF46A274BF91201DBF35
:10058000D6E68ABFAC8E27BF9FD868BF82AA88BF35
:100590005B4F41BF75304DBFD10572BFD94732BFE8
:1005A0007E478ABEE2D2DEBE954F79BED6D1593D96
:1005B000CD759A3C1CAFA8BE7CD0FCBD5A6DB4BEB4
:1005C000331AF2BDB28D81BE22C3CEBE3F443C3D44
:1005D000DB6B9EBE35971C3E3E1B3ABF71E7B7BE34
:1005E0002EDA193EC9A130BF44D00D3E5786F3BE66
:1005F00035B395BE65DDC03C941997BE2F2C093DDF
:10060000C86B23BF857E61BBDCE3D5BE9DA039BE30
:1006100080AE99BE3C7B13BEBF489ABE9B2C91BE58
:10062000CA3299BEFDC946BED11A02BF962DE6BE9A
:1006300060BB1BBF67D50EBF9FA0AABED50A1ABF5D
:100640001DC39CBEC06D3BBE26146CBED0AEF5BEB5
:10065000ED175ABFFA8D6FBE128C7ABE443307BFB6
:10066000133410BECBA922BF6EB215BFFF8AACBE39
:10067000AB4812BF40813FBEC86D29BFD17AA1BE31
:1006800018CE3BBF01B722BF4F5D09BF6A9D02BFB5
:100690007D0638BD96C969BF4624FEBE658104BF8C
:1006A0000444983EB08365BF525B6ABFE032D3BE5C
:1006B000B2D91FBFA5723CBFAD4161BF623D0ABF49
:1006C0006C3198BE8C2C1BBF7859043E22A629BFE2
:1006D0008516BEBE6A0710BECB1816BF8C6436BF27
:1006E0003A9959BD0595F3BE6FAEE1BEA60855BF58
:1006F000378E893E28AD6CBF2D8904BEB0EAC2BEDC
:10070000039C07BFA55356BF71842EBF1BEF24BFA8
:100710007D4040BFACECDABE7E4520BF52A43FBE58
:10072000F51524BFDD46F4BEC6103EBFD91E29BF55
:10073000E1B83EBF1A5538BF73DEEBBE12DE20BFF4
:10074000381410BF8EF9BBBEB1F134BF3844DDBEE2
:10075000C4ED68BE893A4EBEED8652BF29FE1EBF6B
:10076000277FA9BEB29614BFED367BBF07B7E0BEA8
:100770007B513DBFC2F057BE502F21BFD98A15BF54
:10078000E546E2BE913421BCCED3EEBE0902A7BE3F
:10079000AAB3C43DC808DBBEC5DF2EBE5E408DBF18
:1007A00060854DBF0DCB0BBF17239ABE596E2D3FF1
:1007B000B04992BE6333D7BC48E358BF3DE2CB3D5E
:1007C0004A97DEBE39C63EBFAC01993E0D1E80BEC3
:1007D0003E5F7DBEFF7905BF07FF76BFAA559B3FF1
:1007E0001C404BBF32D7F23ED6664BBF97C975BE91
:1007F0008F776E3FEC893A3E3087DCBE9F0721BE83
:100800005BAA87BE4A5903BF8F069ABE1D0AD5BE92
:10081000A347B6BEDD24B3BEB398D7BE892024BF9C
:100820008AA0D4BDD558F8BE563E82BE374FBFBE53
:10083000512A49BF3C6C7CBEE18A0FBFCC29F5BE72
:10084000B00F20BEB275F6BE638021BEF7A922BFED
:100850004E34E8BED24988BE58F959BF3A84E2BE48
:100860005D323EBFA6A9A6BE5E8E4DBE7203A1BE7E
:10087000E92B42BFF31769BF6E09EFBEBF6568BFC2
:1008800076DE85BF10A55ABFF4BF0CBF326780BFAC
:10089000770832BFE27E7CBFC95A0BBFDCCD4EBFAA
:1008A000FD1807BF489847BF78BB10BF52ED56BF31
:1008B00083497BBF53C07CBF1D1E83BFF33523BF5D
:1008C00098B521BF6BF55BBF5FA10BBF9E0AF2BE5F
:1008D000404E1BBF1CAB81BF781CF9BE8D9329BF56
:1008E0006CD83BBF5ADA1DBF6A4C0B3FDB73CDBEE1
:1008F0006B27CABE71F718BF4E439A3EFF0D3F3DAE
:10090000C0F07F3D439705BD11A45CBC1D15A7B980
:100910001AB03F3DB8FD2DBF5E2085BE9A6A67BE06
:100920007645213F74A7B6BE479A12BFA663B73E6D
:100930001921E3BDDC0DCF3D362F873E0989E0BE8E
:10094000CA9C293EC3FB82BEAC89043F6EB1B1BED6
:10095000F09C1F3FB38338BE869B80BE30EAD2BE78
:1009600059AFA9BE115B553EE7150F3F2D1CB13E97
:10097000705D81BE59ECA33E546511BE9D8A213E37
:10098000826B84BDBA8E74BC31DA1F3D97ABDB3EFF
:100990009A1896BD241AF0BD64C25BBFC5F5013F2D
:1009A0005628D73E6CE4FABEDB6ED83EA19AC03E14
:1009B00003C397BE10F3C5BC2C6E003D7B400E3FB9
:1009C000C5516FBF3E55933E46F343BFF7FFB23E5E
:1009D000845CF33EE9B6B03EDC7821BF2C2C28BE07
:1009E0007707CBBE8C24B83DE78C92BDDA792FBC5B
:1009F000D410C6BE384928BF3C7C19BFF3DECFBE39
:100A00005B4303BF4B81D13ED41CA7BE405996BD6A
:100A100016D853BF0B70D13C908A80BE245439BF86
:100A2000B6BA33BD76FB12BF3396013D8A1921BE9B
:100A30004EA112BF6DA8283F7BE66DBF197F033E14
:100A40002BCD52BFAF4400BD1B8A1A3FC4A70A3E3C
:100A5000F792DA3DDC1C2FBFE55D36BFEB7451BF6A
:100A60006D42003F1D8733BF8B738FBFDA575EBF68
:100A70009768D8BD9196E0BE2D8983BF8D3E2CBF6F
:100A800024C310BF73BB23BF74495E3BEDB148BFA5
:100A9000EBFC16BFE463243ED6EF8BBFB9B978BF39
:100AA000B4B8EB3DE51610BF581D13BFCF5E00BFB5
:100AB000098ECC3D91DFD6BE7C8FB5BEF0B051BF64
:100AC000CB67E7BECC688FBF80EB0FBD5418FDBE6F
:100AD00049A1F0BE5BF809BFDA77D53E57960FBF44
:100AE000022E34BFFC68F4BE8B5AAFBE53D1D9BEC0
:100AF0003B4A2EBFC4CA61BFF26F4DBEAE5386BE25
:100B00002DDACCBBDFA953BFE20232BF3DB1373D86
:100B10005691EEBE158AA9BEE3C025BE74064CBF31
:100B20006AAEBFBD305314BFB03A123C7B3B05BF29
:100B3000CC1CD4BCC0D2FABE0FF200BF8093FCBE66
:100B40007BCE92BEDA635ABEB28C9BBED96095BE94
:100B500005DA6ABCE9A721BD84FCACBE18F157BE1A
:100B6000C29307BE335C1DBD9AA356BD448776BEB3
:100B700090334E3C4F99CBBE57549E3E0BAB82BD3B
:100B8000F40597BD50009FBE518D22BE7744ACBE88
:100B9000114346BE0999FEBE8D3314BECE5B98BD8F
:100BA000A52854BEF9783BBE9EE00D3E5C06DDBE36
:100BB000C59F59BEBF4E83BE0D33143E71B0B8BF42
:100BC000FAF928BF547E84BF3FF12A3F74D750BF43
:100BD0008190A3BF1CFC5EBFBCCE16BE244675BF71
:100BE000200A49BF71D04DBF925E44BF004086BF0E
:100BF000A4A37E3E910E75BF68626ABF4043883EE3
:100C000018A297BF6F767ABF06AA2C3F46E476BF3C
:100C100067A6C4BE93C043BFDE8945BE9E7276BF41
:100C2000C4DA6BBE72F43FBFCED64BBF9F6892BF93
:100C30000D65933DCAE7DFBFE7559EBFF838BFBFDC
:100C400017ACE33F27D8BDBF984EDBBF767A96BF7F
:100C500087D002BF339082BF9637B3BFE525BDBFB3
:100C6000F6E58EBF825690BF0F1DAB3D82C3BCBF61
:100C7000F5A59CBF36FE49BD4BE7DEBF888F7CBF24
:100C80002F1AF73EB8CC9BBF8679EEBE7B1485BF8A
:100C900012C63CBD2A6C35BF596EA33DA021AEBF24
:100CA000BA0284BF20B7ACBFCEEC7C3E346D95BF9A
:100CB0009C5786BFAF5184BF867E5C3FB0FD52BF5C
:100CC00040BE78BFF5A11DBF0B8639BF922741BF3B
:100CD000F10634BFBDD59ABF72161CBF2D5B92BF03
:100CE0002C6C1D3E6C279FBFFE7B5EBF9A4C6E3CFA
:100CF000D15D91BF9EF081BFD5880A3E396C3BBF64
:100D000050740EBF1DB5B9BE9673E53D7F1B07BF7E
:100D10004987D1BC0D7C33BF12C06ABFE56642BFB4
:100D2000BE59FCBE05E5B2BE579B6F3E776E0E3DC9
:100D300085BF263D1426083E41158EBE6878573E75
:100D40006DBF9B3DF25FD0BD650C003D949CD9BD4D
:100D500077888CBE5944663C2D7370BF5511903E08
:100D6000BF3DBB3DC6CBD6BE408D8A3E9A6768BDAF
:100D7000D31A533EEC6BC1BEFD57443DD0B5623D26
:100D8000380BCFBE85599D3B77B5C3BEED743CBED5
:100D90008783823EFDE808BE3A66663EFE843EBF1B
:100DA000029D20BFBCB158BFF2966F3FAA0981BF18
:100DB000B2AC81BF01B945BFEC440ABF44CC4FBFC0
:100DC00070512FBFA52395BFB7FE1EBF805E2BBFFE
:100DD000944904BEDAAA36BF1C4638BF280AD8BDDB
:100DE000852DA0BF29F237BF2D822F3D2F3883BF1D
:100DF0007E6F9ABE6AF200BF9E02253E232624BF64
:100E0000B4C3CABDFCDF3EBFDF7472BF478B8CBF6B
:100E10003249FDBE9E03D1BDA67918BD41198D3D55
:100E2000B6CBB2BEE7AFABBD0EF244BDA2C402BFAB
:100E300060321DBF0577F1BEBEC27DBE046E323E7C
:100E4000AE4DE3BDD633FDBDBDB933BF44ED69BA88
:100E5000608A32BE508D41BF317681BE34350EBFBF
:100E6000CBB316BF7D0AA5BEEDE757BFCE7C5B3F77
:100E700052DF67BF7066023F441D3CBFCC2388BE73
:100E8000F464833ED11006BE86D903BF30FD5DBF3A
:100E9000444A21BFC51B30BFFEC546BFD89B8BBF90
:100EA000368751BF6BA19BBFAFC51CBF101584BF58
:100EB000199E37BFCF7233BFAE2924BF168447BFF8
:100EC00003ED53BF014F6CBF962B8DBF5574BFBE52
:100ED000EBAB55BF456352BFC2F645BFFDCE45BF24
:100EE000325671BFE3EE83BFC590B2BEC6B72FBF07
:100EF0009D61BEBE12EC51BF485A91BFDEA348BFF0
:100F0000F48B8CBDB3E588BF7AAE1CBF267C45BF91
:100F1000FA60053F4934FCBEE9A619BF911BEDBE3E
:100F20008CBC10BF7AF2F9BE206F2EBF0B7B44BF82
:100F300082834BBFB31C0ABF3E759E3E7AFF8CBFB7
:100F4000162323BF35BE57BE3D3890BF967C71BF78
:100F50009DDB8A3E23C8E1BE4C1212BFF7D4D3BE3C
:100F60005F34A43E729548BFA829FDBB151B76BF10
:100F7000978D5FBFD7FF56BFE37E71BF8CF559BF1A
:100F800063FF2BBFEC1766BFF7FD58BFA96533BFE2
:100F9000BA3E3ABFD2FA2DBF9497F9BE67BC4BBF99
:100FA000768073BFE813F3BE16342DBF051559BF05
:100FB000B9DEFFBEC02007BF672377BF4B010ABF62
:100FC00032846CBFE8B935BFD7EC20BFAC78E6BE41
:100FD000A77E43BF351015BF400C2FBFA1A417BF7C
:100FE000D26506BF7E2F50BF8A1F1DBF0F8D0ABF5F
:100FF0000B7138BF1D1E973D419BB83EA35A03BEDF
:1010000082A19FBECE2DDEBDCC7123BDFD9AA13C39
:10101000BA4BC93DAED0653ECECDE63D3032A63DA1
:10102000D0F346BE659E85BE1F8950BF016BE23E70
:10103000CA3FB13DC10030BF24B6D13E352ED03DB0
:10104000260B8A3C922D8BBD75377FBEEED0093FB3
:101050004DF640BFA1DAB23E04E7ECBE30D15F3DB1
:101060007B70DB3EB7BD003FFBDC90BF00D27BBF97
:10107000F06F7BBFBC26A6BF6B766BBFC1CDA6BF92
:10108000075891BFEB3495BFD05C40BFD25F9DBF86
:101090000C3F91BFD7A86CBF48EFAFBFC6DCB6BF4F
:1010A00038AF7ABFA24DA2BF8AC7B4BF31CD8BBFC4
:1010B00095695DBF75208BBFBCD260BF5E1D85BFCB
:1010C0008C5C8EBFDAF796BF361976BF00C576BF47
:1010D00001AB56BFAB6194BF997A8FBF99C168BF0E
:1010E00087044D3B1FFAB3BE60AB523FBEA2AC3E7D
:1010F00009A996BFD60CB43F2F62D53EFA292F40DE
:10110000D86DF83FD0EEED3F7CBAA63F941807C0EB
:10111000D16F763FAC238C3FDBF9E13D776494BF20
:10112000A975403FD37A24BF7959FEBE801C133F76
:10113000E99705BF7BB6B73F127E2B40C31A04C0A8
:1011400041F922BE40F907C0BF1A3CBE2BB65E3F34
:10115000D2D213C0F49E92BF7D851BBFA39C2CBE30
:101160006BBC62BEED3ADFBE19CAF1BE653782BE06
:101170004AF951BE6E121CBE3FC22DBE794BF5BE60
:10118000C0B9E2BDC1FEB73D3FD20DBDFD8453BB2A
:1011900007403DBF58D8CDBD02BCEFBEB9A112BFBC
:1011A00074AE44BD72CAD9BCA504BBBEA448E1BE9E
:1011B0000D15BCBEFAF00D3FE53F43BFA1B97B3D25
:1011C0009220CCBE63F9CEBEE7C8133F08445DBE93
:1011D000A06401BFB9F528BF20A33FBFAD804BBFBE
:1011E0005A7B2EBF615E4BBF67B23CBFB59F04BF49
:1011F000DED7A4BE63D1EEBE5C3943BF597566BF6E
:101200003F630DBF42EF6ABF7C39EEBDD4C951BF09
:10121000AA84EFBE72F7F9BE1DC7E8BEC0403CBF4E
:101220007D0707BFE57B45BF9A21FCBEEAC90BBF1E
:10123000FFB953BE53D72CBFACABBABEF11A69BFCE
:101240003AE4E9BEECE01CBF476F49BFFACD9E3CD3
:10125000EBD8353D2D1CBEBEF88EE9BE80D406BF4E
:101260000C6ABEBD96D14CBE2C7641BE59C2CBBED7
:101270008ACC9ABDCDF2983C27FC82BD55AFDCBE2E
:10128000287752BF717105BE53A108BF380D05BF45
:10129000E8F6AFBE84DCD8BEB1C6FBBEC8A868BD48
:1012A000D7258CBEE4A0AE3E9C662BBF3A3BD83E11
:1012B0000645D7BE611C9CBE2823F33E9520EFBD9A
:1012C000C957EDBE5E65CE3EAC76E0BEC114CA3EE7
:1012D0002858883D4B13083E495EFA3DF542F43CE0
:1012E00020608ABE5F0D01BE7D27843E7AD6BD3E5A
:1012F0005FA5A9BD9719223ECA63ACBE7A46893E56
:10130000D7EAE0BEA7C2DE3D68D0B93E32B8653E3E
:101310003B5D88BE7170C0BE25D884BEE11192BE0F
:10132000252E6ABD7A1614BFD6EF48BF4220F3BE01
:101330002BCAFCBC6418E9BED92796BEB36E6DBE3D
:1013400001BDE7BE5202AC3EB11A5BBE6558E33E3A
:1013500097C2503F074E54BE273EB3BEFFEC43BE7C
:10136000CE425ABDFE7CE8BDA92810BD02353EBE66
:1013700059F28ABE62F6B3BED6F497BEFA86ABBD0A
:101380006904C0BE26173DBE5B834A3EAD7155BFA2
:101390009D2D47BE6CB1BBBE8364C6BE969DFDBE8F
:1013A000D2A68C3D5F3AC9BE69E553BFDE9763BCE8
:1013B0003D7C31BDFB962EBD7CA5FCBE555AA5BE1D
:1013C000762685BEA65DE5BE0C801EBF806DFFBE85
:1013D000EBB91ABEEA66E1BEE805F7BD98D25BBF7D
:1013E0002954CBBE78934EBF2FC8A7BD3C5599BF9B
:1013F0006CF0D0BFE10704BE51AD1ABF249013BEFC
:101400000600CC3FCDAC81BF0C8219BFD57B45BF58
:101410005565893F71BE23BF1CAA4BBFAD07B4BF42
:10142000B32483BFBA4367BF84641BBFFD208FBF53
:101430001BE11ABFC3FF19BF73AADB3F173F88BF69
:101440006BE31DBFA9EDD23F8F3679BF394625BF6B
:10145000390C2E3FA51C25BF8583B4BFE17D0EC08E
:101460007036D53F4F97B7BF7510E13FDB2C1BBFE0
:10147000D218EEBFFD8A7ABF000000000000000015
:10148000CCC322BEF4C1983FD4863BBF4DA08D3C57
:1014900061AA0FC0DA859BBFD547103EBDD860C09A
:1014A000A61118C0A4FD09C0F1CA8FBF935BB03F5D
:1014B000F5447EBF7D0180BF7DC6C63D117CA43F43
:1014C000354048BFB5919F3D80F27F3F2C44BCBE64
:1014D0004F8E8ABF8FC18ABFDC4D61C03EF4F4BF1E
:1014E0004DC9073D23608FBDA4201E3E87774EBFA8
:1014F000499435BFDAE2733F0000000000000000AD
:04150000C24DDE3DBD
:040000057100000086
:00000001FF
